{
  "_format": "hh-sol-artifact-1",
  "contractName": "TotheNineCloud",
  "sourceName": "contracts/TotheNineCloud.sol",
  "abi": [
    {
      "inputs": [],
      "stateMutability": "nonpayable",
      "type": "constructor"
    },
    {
      "inputs": [
        {
          "internalType": "address",
          "name": "spender",
          "type": "address"
        },
        {
          "internalType": "uint256",
          "name": "allowance",
          "type": "uint256"
        },
        {
          "internalType": "uint256",
          "name": "needed",
          "type": "uint256"
        }
      ],
      "name": "ERC20InsufficientAllowance",
      "type": "error"
    },
    {
      "inputs": [
        {
          "internalType": "address",
          "name": "sender",
          "type": "address"
        },
        {
          "internalType": "uint256",
          "name": "balance",
          "type": "uint256"
        },
        {
          "internalType": "uint256",
          "name": "needed",
          "type": "uint256"
        }
      ],
      "name": "ERC20InsufficientBalance",
      "type": "error"
    },
    {
      "inputs": [
        {
          "internalType": "address",
          "name": "approver",
          "type": "address"
        }
      ],
      "name": "ERC20InvalidApprover",
      "type": "error"
    },
    {
      "inputs": [
        {
          "internalType": "address",
          "name": "receiver",
          "type": "address"
        }
      ],
      "name": "ERC20InvalidReceiver",
      "type": "error"
    },
    {
      "inputs": [
        {
          "internalType": "address",
          "name": "sender",
          "type": "address"
        }
      ],
      "name": "ERC20InvalidSender",
      "type": "error"
    },
    {
      "inputs": [
        {
          "internalType": "address",
          "name": "spender",
          "type": "address"
        }
      ],
      "name": "ERC20InvalidSpender",
      "type": "error"
    },
    {
      "inputs": [],
      "name": "EnforcedPause",
      "type": "error"
    },
    {
      "inputs": [],
      "name": "ExpectedPause",
      "type": "error"
    },
    {
      "inputs": [
        {
          "internalType": "address",
          "name": "owner",
          "type": "address"
        }
      ],
      "name": "OwnableInvalidOwner",
      "type": "error"
    },
    {
      "inputs": [
        {
          "internalType": "address",
          "name": "account",
          "type": "address"
        }
      ],
      "name": "OwnableUnauthorizedAccount",
      "type": "error"
    },
    {
      "anonymous": false,
      "inputs": [
        {
          "indexed": true,
          "internalType": "address",
          "name": "whale",
          "type": "address"
        },
        {
          "indexed": false,
          "internalType": "uint256",
          "name": "attemptedAmount",
          "type": "uint256"
        }
      ],
      "name": "AntiWhaleTriggered",
      "type": "event"
    },
    {
      "anonymous": false,
      "inputs": [
        {
          "indexed": true,
          "internalType": "address",
          "name": "owner",
          "type": "address"
        },
        {
          "indexed": true,
          "internalType": "address",
          "name": "spender",
          "type": "address"
        },
        {
          "indexed": false,
          "internalType": "uint256",
          "name": "value",
          "type": "uint256"
        }
      ],
      "name": "Approval",
      "type": "event"
    },
    {
      "anonymous": false,
      "inputs": [
        {
          "indexed": true,
          "internalType": "address",
          "name": "holder",
          "type": "address"
        },
        {
          "indexed": false,
          "internalType": "uint256",
          "name": "amount",
          "type": "uint256"
        }
      ],
      "name": "CloudReached",
      "type": "event"
    },
    {
      "anonymous": false,
      "inputs": [
        {
          "indexed": false,
          "internalType": "uint256",
          "name": "amount",
          "type": "uint256"
        }
      ],
      "name": "FeesCollected",
      "type": "event"
    },
    {
      "anonymous": false,
      "inputs": [
        {
          "indexed": true,
          "internalType": "address",
          "name": "previousOwner",
          "type": "address"
        },
        {
          "indexed": true,
          "internalType": "address",
          "name": "newOwner",
          "type": "address"
        }
      ],
      "name": "OwnershipTransferred",
      "type": "event"
    },
    {
      "anonymous": false,
      "inputs": [
        {
          "indexed": false,
          "internalType": "address",
          "name": "account",
          "type": "address"
        }
      ],
      "name": "Paused",
      "type": "event"
    },
    {
      "anonymous": false,
      "inputs": [
        {
          "indexed": true,
          "internalType": "address",
          "name": "from",
          "type": "address"
        },
        {
          "indexed": true,
          "internalType": "address",
          "name": "to",
          "type": "address"
        },
        {
          "indexed": false,
          "internalType": "uint256",
          "name": "value",
          "type": "uint256"
        }
      ],
      "name": "Transfer",
      "type": "event"
    },
    {
      "anonymous": false,
      "inputs": [
        {
          "indexed": false,
          "internalType": "address",
          "name": "account",
          "type": "address"
        }
      ],
      "name": "Unpaused",
      "type": "event"
    },
    {
      "inputs": [
        {
          "internalType": "address",
          "name": "owner",
          "type": "address"
        },
        {
          "internalType": "address",
          "name": "spender",
          "type": "address"
        }
      ],
      "name": "allowance",
      "outputs": [
        {
          "internalType": "uint256",
          "name": "",
          "type": "uint256"
        }
      ],
      "stateMutability": "view",
      "type": "function"
    },
    {
      "inputs": [
        {
          "internalType": "address",
          "name": "spender",
          "type": "address"
        },
        {
          "internalType": "uint256",
          "name": "value",
          "type": "uint256"
        }
      ],
      "name": "approve",
      "outputs": [
        {
          "internalType": "bool",
          "name": "",
          "type": "bool"
        }
      ],
      "stateMutability": "nonpayable",
      "type": "function"
    },
    {
      "inputs": [
        {
          "internalType": "address",
          "name": "account",
          "type": "address"
        }
      ],
      "name": "balanceOf",
      "outputs": [
        {
          "internalType": "uint256",
          "name": "",
          "type": "uint256"
        }
      ],
      "stateMutability": "view",
      "type": "function"
    },
    {
      "inputs": [
        {
          "internalType": "uint256",
          "name": "value",
          "type": "uint256"
        }
      ],
      "name": "burn",
      "outputs": [],
      "stateMutability": "nonpayable",
      "type": "function"
    },
    {
      "inputs": [
        {
          "internalType": "address",
          "name": "account",
          "type": "address"
        },
        {
          "internalType": "uint256",
          "name": "value",
          "type": "uint256"
        }
      ],
      "name": "burnFrom",
      "outputs": [],
      "stateMutability": "nonpayable",
      "type": "function"
    },
    {
      "inputs": [],
      "name": "decimals",
      "outputs": [
        {
          "internalType": "uint8",
          "name": "",
          "type": "uint8"
        }
      ],
      "stateMutability": "view",
      "type": "function"
    },
    {
      "inputs": [],
      "name": "distributeFees",
      "outputs": [],
      "stateMutability": "nonpayable",
      "type": "function"
    },
    {
      "inputs": [],
      "name": "emergencyWithdraw",
      "outputs": [],
      "stateMutability": "nonpayable",
      "type": "function"
    },
    {
      "inputs": [
        {
          "internalType": "address",
          "name": "account",
          "type": "address"
        }
      ],
      "name": "excludeFromFee",
      "outputs": [],
      "stateMutability": "nonpayable",
      "type": "function"
    },
    {
      "inputs": [
        {
          "internalType": "address",
          "name": "account",
          "type": "address"
        }
      ],
      "name": "includeInFee",
      "outputs": [],
      "stateMutability": "nonpayable",
      "type": "function"
    },
    {
      "inputs": [
        {
          "internalType": "address",
          "name": "account",
          "type": "address"
        }
      ],
      "name": "isExcludedFromFee",
      "outputs": [
        {
          "internalType": "bool",
          "name": "",
          "type": "bool"
        }
      ],
      "stateMutability": "view",
      "type": "function"
    },
    {
      "inputs": [],
      "name": "maxTransactionAmount",
      "outputs": [
        {
          "internalType": "uint256",
          "name": "",
          "type": "uint256"
        }
      ],
      "stateMutability": "view",
      "type": "function"
    },
    {
      "inputs": [],
      "name": "maxWalletAmount",
      "outputs": [
        {
          "internalType": "uint256",
          "name": "",
          "type": "uint256"
        }
      ],
      "stateMutability": "view",
      "type": "function"
    },
    {
      "inputs": [],
      "name": "name",
      "outputs": [
        {
          "internalType": "string",
          "name": "",
          "type": "string"
        }
      ],
      "stateMutability": "view",
      "type": "function"
    },
    {
      "inputs": [],
      "name": "owner",
      "outputs": [
        {
          "internalType": "address",
          "name": "",
          "type": "address"
        }
      ],
      "stateMutability": "view",
      "type": "function"
    },
    {
      "inputs": [],
      "name": "pause",
      "outputs": [],
      "stateMutability": "nonpayable",
      "type": "function"
    },
    {
      "inputs": [],
      "name": "paused",
      "outputs": [
        {
          "internalType": "bool",
          "name": "",
          "type": "bool"
        }
      ],
      "stateMutability": "view",
      "type": "function"
    },
    {
      "inputs": [],
      "name": "reflectionFee",
      "outputs": [
        {
          "internalType": "uint256",
          "name": "",
          "type": "uint256"
        }
      ],
      "stateMutability": "view",
      "type": "function"
    },
    {
      "inputs": [],
      "name": "renounceOwnership",
      "outputs": [],
      "stateMutability": "nonpayable",
      "type": "function"
    },
    {
      "inputs": [
        {
          "internalType": "uint256",
          "name": "_reflectionFee",
          "type": "uint256"
        }
      ],
      "name": "setReflectionFeePercent",
      "outputs": [],
      "stateMutability": "nonpayable",
      "type": "function"
    },
    {
      "inputs": [],
      "name": "symbol",
      "outputs": [
        {
          "internalType": "string",
          "name": "",
          "type": "string"
        }
      ],
      "stateMutability": "view",
      "type": "function"
    },
    {
      "inputs": [],
      "name": "totalFeesCollected",
      "outputs": [
        {
          "internalType": "uint256",
          "name": "",
          "type": "uint256"
        }
      ],
      "stateMutability": "view",
      "type": "function"
    },
    {
      "inputs": [],
      "name": "totalSupply",
      "outputs": [
        {
          "internalType": "uint256",
          "name": "",
          "type": "uint256"
        }
      ],
      "stateMutability": "view",
      "type": "function"
    },
    {
      "inputs": [
        {
          "internalType": "address",
          "name": "to",
          "type": "address"
        },
        {
          "internalType": "uint256",
          "name": "amount",
          "type": "uint256"
        }
      ],
      "name": "transfer",
      "outputs": [
        {
          "internalType": "bool",
          "name": "",
          "type": "bool"
        }
      ],
      "stateMutability": "nonpayable",
      "type": "function"
    },
    {
      "inputs": [
        {
          "internalType": "address",
          "name": "from",
          "type": "address"
        },
        {
          "internalType": "address",
          "name": "to",
          "type": "address"
        },
        {
          "internalType": "uint256",
          "name": "amount",
          "type": "uint256"
        }
      ],
      "name": "transferFrom",
      "outputs": [
        {
          "internalType": "bool",
          "name": "",
          "type": "bool"
        }
      ],
      "stateMutability": "nonpayable",
      "type": "function"
    },
    {
      "inputs": [
        {
          "internalType": "address",
          "name": "newOwner",
          "type": "address"
        }
      ],
      "name": "transferOwnership",
      "outputs": [],
      "stateMutability": "nonpayable",
      "type": "function"
    },
    {
      "inputs": [],
      "name": "unpause",
      "outputs": [],
      "stateMutability": "nonpayable",
      "type": "function"
    },
    {
      "inputs": [
        {
          "internalType": "uint256",
          "name": "_maxTransactionAmount",
          "type": "uint256"
        }
      ],
      "name": "updateMaxTransactionAmount",
      "outputs": [],
      "stateMutability": "nonpayable",
      "type": "function"
    },
    {
      "inputs": [
        {
          "internalType": "uint256",
          "name": "_maxWalletAmount",
          "type": "uint256"
        }
      ],
      "name": "updateMaxWalletAmount",
      "outputs": [],
      "stateMutability": "nonpayable",
      "type": "function"
    },
    {
      "stateMutability": "payable",
      "type": "receive"
    }
  ],
  "bytecode": "0x60806040526a084595161401484a0000006006556a108b2a2c2802909400000060075560026009553480156200003457600080fd5b50336040518060400160405280600e81526020016d151bdd1a19539a5b9950db1bdd5960921b8152506040518060400160405280600381526020016254394360e81b81525081600390816200008a919062000396565b50600462000099828262000396565b5050506001600160a01b038116620000cc57604051631e4fbdf760e01b8152600060048201526024015b60405180910390fd5b620000d78162000126565b50620000f0336b033b2e3c9fd0803ce800000062000180565b336000908152600860205260408082208054600160ff19918216811790925530845291909220805490911690911790556200048a565b600580546001600160a01b03838116610100818102610100600160a81b031985161790945560405193909204169182907f8be0079c531659141344cd1fd0a4f28419497f9722a3daafe3b4186f6b6457e090600090a35050565b6001600160a01b038216620001ac5760405163ec442f0560e01b815260006004820152602401620000c3565b620001ba60008383620001be565b5050565b6001600160a01b038316620001ed578060026000828254620001e1919062000462565b90915550620002619050565b6001600160a01b03831660009081526020819052604090205481811015620002425760405163391434e360e21b81526001600160a01b03851660048201526024810182905260448101839052606401620000c3565b6001600160a01b03841660009081526020819052604090209082900390555b6001600160a01b0382166200027f576002805482900390556200029e565b6001600160a01b03821660009081526020819052604090208054820190555b816001600160a01b0316836001600160a01b03167fddf252ad1be2c89b69c2b068fc378daa952ba7f163c4a11628f55a4df523b3ef83604051620002e491815260200190565b60405180910390a3505050565b634e487b7160e01b600052604160045260246000fd5b600181811c908216806200031c57607f821691505b6020821081036200033d57634e487b7160e01b600052602260045260246000fd5b50919050565b601f8211156200039157600081815260208120601f850160051c810160208610156200036c5750805b601f850160051c820191505b818110156200038d5782815560010162000378565b5050505b505050565b81516001600160401b03811115620003b257620003b2620002f1565b620003ca81620003c3845462000307565b8462000343565b602080601f831160018114620004025760008415620003e95750858301515b600019600386901b1c1916600185901b1785556200038d565b600085815260208120601f198616915b82811015620004335788860151825594840194600190910190840162000412565b5085821015620004525787850151600019600388901b60f8161c191681555b5050505050600190811b01905550565b808201808211156200048457634e487b7160e01b600052601160045260246000fd5b92915050565b611468806200049a6000396000f3fe6080604052600436106101c65760003560e01c806379cc6790116100f7578063aa4bde2811610095578063db2e21bc11610064578063db2e21bc146104e7578063dd62ed3e146104fc578063ea2f0b3714610542578063f2fde38b1461056257600080fd5b8063aa4bde2814610486578063bb57ad201461049c578063c18bc195146104b1578063c8c8ebe4146104d157600080fd5b80638da5cb5b116100d15780638da5cb5b146103fb57806395d89b4114610431578063a9059cbb14610446578063aa4980231461046657600080fd5b806379cc6790146103b057806383ad7994146103d05780638456cb59146103e657600080fd5b806342966c68116101645780635c975abb1161013e5780635c975abb1461033857806360c6d8ae1461035057806370a0823114610365578063715018a61461039b57600080fd5b806342966c68146102bf578063437823ec146102df5780635342acb4146102ff57600080fd5b80631f7ede2b116101a05780631f7ede2b1461024c57806323b872dd1461026e578063313ce5671461028e5780633f4ba83a146102aa57600080fd5b806306fdde03146101d2578063095ea7b3146101fd57806318160ddd1461022d57600080fd5b366101cd57005b600080fd5b3480156101de57600080fd5b506101e7610582565b6040516101f49190611245565b60405180910390f35b34801561020957600080fd5b5061021d6102183660046112af565b610614565b60405190151581526020016101f4565b34801561023957600080fd5b506002545b6040519081526020016101f4565b34801561025857600080fd5b5061026c6102673660046112d9565b61062e565b005b34801561027a57600080fd5b5061021d6102893660046112f2565b61069f565b34801561029a57600080fd5b50604051601281526020016101f4565b3480156102b657600080fd5b5061026c6107b5565b3480156102cb57600080fd5b5061026c6102da3660046112d9565b6107c7565b3480156102eb57600080fd5b5061026c6102fa36600461132e565b6107d4565b34801561030b57600080fd5b5061021d61031a36600461132e565b6001600160a01b031660009081526008602052604090205460ff1690565b34801561034457600080fd5b5060055460ff1661021d565b34801561035c57600080fd5b50600a5461023e565b34801561037157600080fd5b5061023e61038036600461132e565b6001600160a01b031660009081526020819052604090205490565b3480156103a757600080fd5b5061026c610800565b3480156103bc57600080fd5b5061026c6103cb3660046112af565b610812565b3480156103dc57600080fd5b5061023e60095481565b3480156103f257600080fd5b5061026c61082b565b34801561040757600080fd5b5060055461010090046001600160a01b03166040516001600160a01b0390911681526020016101f4565b34801561043d57600080fd5b506101e761083b565b34801561045257600080fd5b5061021d6104613660046112af565b61084a565b34801561047257600080fd5b5061026c6104813660046112d9565b610953565b34801561049257600080fd5b5061023e60075481565b3480156104a857600080fd5b5061026c6109d1565b3480156104bd57600080fd5b5061026c6104cc3660046112d9565b610a58565b3480156104dd57600080fd5b5061023e60065481565b3480156104f357600080fd5b5061026c610aca565b34801561050857600080fd5b5061023e610517366004611350565b6001600160a01b03918216600090815260016020908152604080832093909416825291909152205490565b34801561054e57600080fd5b5061026c61055d36600461132e565b610b12565b34801561056e57600080fd5b5061026c61057d36600461132e565b610b3b565b60606003805461059190611383565b80601f01602080910402602001604051908101604052809291908181526020018280546105bd90611383565b801561060a5780601f106105df5761010080835404028352916020019161060a565b820191906000526020600020905b8154815290600101906020018083116105ed57829003601f168201915b5050505050905090565b600033610622818585610b76565b60019150505b92915050565b610636610b88565b600a81111561069a5760405162461bcd60e51b815260206004820152602560248201527f5439433a205265666c656374696f6e206665652063616e6e6f74206578636565604482015264642031302560d81b60648201526084015b60405180910390fd5b600955565b60006106a9610bbb565b336106b5858285610bdf565b6106c0858585610c5e565b6001600160a01b03851660009081526008602052604090205460ff16806106ff57506001600160a01b03841660009081526008602052604090205460ff165b156107145761070f858585610ea5565b6107aa565b600060646009548561072691906113d3565b61073091906113ea565b9050600061073e828661140c565b905061074b878783610ea5565b81156107a75761075c873084610ea5565b81600a600082825461076e919061141f565b90915550506040518281527f860c0aa5520013080c2f65981705fcdea474d9f7c3daf954656ed5e65d692d1f9060200160405180910390a15b50505b506001949350505050565b6107bd610b88565b6107c5610f04565b565b6107d13382610f56565b50565b6107dc610b88565b6001600160a01b03166000908152600860205260409020805460ff19166001179055565b610808610b88565b6107c56000610f8c565b61081d823383610bdf565b6108278282610f56565b5050565b610833610b88565b6107c5610fe6565b60606004805461059190611383565b6000610854610bbb565b33610860818585610c5e565b6001600160a01b03811660009081526008602052604090205460ff168061089f57506001600160a01b03841660009081526008602052604090205460ff165b156108b4576108af818585610ea5565b610622565b60006064600954856108c691906113d3565b6108d091906113ea565b905060006108de828661140c565b90506108eb838783610ea5565b8115610947576108fc833084610ea5565b81600a600082825461090e919061141f565b90915550506040518281527f860c0aa5520013080c2f65981705fcdea474d9f7c3daf954656ed5e65d692d1f9060200160405180910390a15b50600195945050505050565b61095b610b88565b6103e861096760025490565b61097191906113ea565b8110156109cc5760405162461bcd60e51b815260206004820152602360248201527f5439433a204d6178207472616e73616374696f6e20616d6f756e7420746f6f206044820152626c6f7760e81b6064820152608401610691565b600655565b6109d9610b88565b3060009081526020819052604090205480610a365760405162461bcd60e51b815260206004820152601a60248201527f5439433a204e6f206665657320746f20646973747269627574650000000000006044820152606401610691565b6107d130610a526005546001600160a01b036101009091041690565b83610ea5565b610a60610b88565b6101f4610a6c60025490565b610a7691906113ea565b811015610ac55760405162461bcd60e51b815260206004820152601e60248201527f5439433a204d61782077616c6c657420616d6f756e7420746f6f206c6f7700006044820152606401610691565b600755565b610ad2610b88565b6005546040516001600160a01b0361010090920491909116904780156108fc02916000818181858888f193505050501580156107d1573d6000803e3d6000fd5b610b1a610b88565b6001600160a01b03166000908152600860205260409020805460ff19169055565b610b43610b88565b6001600160a01b038116610b6d57604051631e4fbdf760e01b815260006004820152602401610691565b6107d181610f8c565b610b838383836001611023565b505050565b6005546001600160a01b036101009091041633146107c55760405163118cdaa760e01b8152336004820152602401610691565b60055460ff16156107c55760405163d93c066560e01b815260040160405180910390fd5b6001600160a01b03838116600090815260016020908152604080832093861683529290522054600019811015610c585781811015610c4957604051637dc7a0d960e11b81526001600160a01b03841660048201526024810182905260448101839052606401610691565b610c5884848484036000611023565b50505050565b6001600160a01b03831660009081526008602052604090205460ff16158015610ca057506001600160a01b03821660009081526008602052604090205460ff16155b15610e0b57600654811115610d055760405162461bcd60e51b815260206004820152602560248201527f5439433a205472616e73616374696f6e20616d6f756e742065786365656473206044820152641b1a5b5a5d60da1b6064820152608401610691565b6005546001600160a01b038381166101009092041614801590610d3157506001600160a01b0382163014155b15610db15760075481610d59846001600160a01b031660009081526020819052604090205490565b610d63919061141f565b1115610db15760405162461bcd60e51b815260206004820181905260248201527f5439433a2057616c6c657420616d6f756e742065786365656473206c696d69746044820152606401610691565b6002600654610dc091906113ea565b811115610e0b57826001600160a01b03167f97bbbf0fecd9077b8ebf12ea85ddf536fa06dcc8990a154e584a1f5af18a8af682604051610e0291815260200190565b60405180910390a25b6002600754610e1a91906113ea565b81610e3a846001600160a01b031660009081526020819052604090205490565b610e44919061141f565b10610b83576001600160a01b0382166000818152602081905260409020547f642995b2844bc398ea1559fd9ed745234d7ab2e9e54c9f4085ecc4e420f7f35590610e8f90849061141f565b60405190815260200160405180910390a2505050565b6001600160a01b038316610ecf57604051634b637e8f60e11b815260006004820152602401610691565b6001600160a01b038216610ef95760405163ec442f0560e01b815260006004820152602401610691565b610b838383836110f8565b610f0c611222565b6005805460ff191690557f5db9ee0a495bf2e6ff9c91a7834c1ba4fdd244a5e8aa4e537bd38aeae4b073aa335b6040516001600160a01b03909116815260200160405180910390a1565b6001600160a01b038216610f8057604051634b637e8f60e11b815260006004820152602401610691565b610827826000836110f8565b600580546001600160a01b03838116610100818102610100600160a81b031985161790945560405193909204169182907f8be0079c531659141344cd1fd0a4f28419497f9722a3daafe3b4186f6b6457e090600090a35050565b610fee610bbb565b6005805460ff191660011790557f62e78cea01bee320cd4e420270b5ea74000d11b0c9f74754ebdbfc544b05a258610f393390565b6001600160a01b03841661104d5760405163e602df0560e01b815260006004820152602401610691565b6001600160a01b03831661107757604051634a1406b160e11b815260006004820152602401610691565b6001600160a01b0380851660009081526001602090815260408083209387168352929052208290558015610c5857826001600160a01b0316846001600160a01b03167f8c5be1e5ebec7d5bd14f71427d1e84f3dd0314c0f7b2291e5b200ac8c7c3b925846040516110ea91815260200190565b60405180910390a350505050565b6001600160a01b038316611123578060026000828254611118919061141f565b909155506111959050565b6001600160a01b038316600090815260208190526040902054818110156111765760405163391434e360e21b81526001600160a01b03851660048201526024810182905260448101839052606401610691565b6001600160a01b03841660009081526020819052604090209082900390555b6001600160a01b0382166111b1576002805482900390556111d0565b6001600160a01b03821660009081526020819052604090208054820190555b816001600160a01b0316836001600160a01b03167fddf252ad1be2c89b69c2b068fc378daa952ba7f163c4a11628f55a4df523b3ef8360405161121591815260200190565b60405180910390a3505050565b60055460ff166107c557604051638dfc202b60e01b815260040160405180910390fd5b600060208083528351808285015260005b8181101561127257858101830151858201604001528201611256565b506000604082860101526040601f19601f8301168501019250505092915050565b80356001600160a01b03811681146112aa57600080fd5b919050565b600080604083850312156112c257600080fd5b6112cb83611293565b946020939093013593505050565b6000602082840312156112eb57600080fd5b5035919050565b60008060006060848603121561130757600080fd5b61131084611293565b925061131e60208501611293565b9150604084013590509250925092565b60006020828403121561134057600080fd5b61134982611293565b9392505050565b6000806040838503121561136357600080fd5b61136c83611293565b915061137a60208401611293565b90509250929050565b600181811c9082168061139757607f821691505b6020821081036113b757634e487b7160e01b600052602260045260246000fd5b50919050565b634e487b7160e01b600052601160045260246000fd5b8082028115828204841417610628576106286113bd565b60008261140757634e487b7160e01b600052601260045260246000fd5b500490565b81810381811115610628576106286113bd565b80820180821115610628576106286113bd56fea264697066735822122081fce99d322b2069cc26ea1be5207e00e6e0c20509040a6551dd87f3e9fc616764736f6c63430008140033",
  "linkReferences": {},
  "deployedLinkReferences": {}
}